{
  "contractName": "Reserve",
  "abi": [
    {
      "constant": true,
      "inputs": [],
      "name": "trade",
      "outputs": [
        {
          "name": "",
          "type": "bool"
        }
      ],
      "payable": false,
      "stateMutability": "view",
      "type": "function"
    },
    {
      "constant": true,
      "inputs": [],
      "name": "decimals",
      "outputs": [
        {
          "name": "",
          "type": "uint256"
        }
      ],
      "payable": false,
      "stateMutability": "view",
      "type": "function"
    },
    {
      "constant": true,
      "inputs": [],
      "name": "sellRate",
      "outputs": [
        {
          "name": "",
          "type": "uint256"
        }
      ],
      "payable": false,
      "stateMutability": "view",
      "type": "function"
    },
    {
      "constant": true,
      "inputs": [],
      "name": "supportToken",
      "outputs": [
        {
          "name": "",
          "type": "address"
        }
      ],
      "payable": false,
      "stateMutability": "view",
      "type": "function"
    },
    {
      "constant": true,
      "inputs": [],
      "name": "owner",
      "outputs": [
        {
          "name": "",
          "type": "address"
        }
      ],
      "payable": false,
      "stateMutability": "view",
      "type": "function"
    },
    {
      "constant": true,
      "inputs": [],
      "name": "funds",
      "outputs": [
        {
          "name": "ethStored",
          "type": "uint256"
        },
        {
          "name": "tokenStored",
          "type": "uint256"
        }
      ],
      "payable": false,
      "stateMutability": "view",
      "type": "function"
    },
    {
      "constant": true,
      "inputs": [],
      "name": "buyRate",
      "outputs": [
        {
          "name": "",
          "type": "uint256"
        }
      ],
      "payable": false,
      "stateMutability": "view",
      "type": "function"
    },
    {
      "inputs": [
        {
          "name": "_supportToken",
          "type": "address"
        }
      ],
      "payable": false,
      "stateMutability": "nonpayable",
      "type": "constructor"
    },
    {
      "payable": true,
      "stateMutability": "payable",
      "type": "fallback"
    },
    {
      "constant": false,
      "inputs": [
        {
          "name": "_token",
          "type": "address"
        },
        {
          "name": "_amount",
          "type": "uint256"
        },
        {
          "name": "_destAddress",
          "type": "address"
        }
      ],
      "name": "withdrawFunds",
      "outputs": [],
      "payable": false,
      "stateMutability": "nonpayable",
      "type": "function"
    },
    {
      "constant": false,
      "inputs": [
        {
          "name": "_buyRate",
          "type": "uint256"
        },
        {
          "name": "_sellRate",
          "type": "uint256"
        }
      ],
      "name": "setExchangeRates",
      "outputs": [],
      "payable": false,
      "stateMutability": "nonpayable",
      "type": "function"
    },
    {
      "constant": true,
      "inputs": [
        {
          "name": "_isBuy",
          "type": "bool"
        },
        {
          "name": "_srcAmount",
          "type": "uint256"
        }
      ],
      "name": "getExchangeRate",
      "outputs": [
        {
          "name": "",
          "type": "uint256"
        }
      ],
      "payable": false,
      "stateMutability": "view",
      "type": "function"
    },
    {
      "constant": false,
      "inputs": [
        {
          "name": "_isBuy",
          "type": "bool"
        },
        {
          "name": "_srcAmount",
          "type": "uint256"
        }
      ],
      "name": "exchange",
      "outputs": [],
      "payable": true,
      "stateMutability": "payable",
      "type": "function"
    },
    {
      "constant": false,
      "inputs": [
        {
          "name": "_flag",
          "type": "bool"
        }
      ],
      "name": "setTradable",
      "outputs": [],
      "payable": false,
      "stateMutability": "nonpayable",
      "type": "function"
    }
  ],
  "bytecode": "0x6060604052600a600555600a6006556001600760006101000a81548160ff021916908315150217905550341561003457600080fd5b604051602080610cd683398101604052808051906020019091905050600033600260006101000a81548173ffffffffffffffffffffffffffffffffffffffff021916908373ffffffffffffffffffffffffffffffffffffffff16021790555081600460006101000a81548173ffffffffffffffffffffffffffffffffffffffff021916908373ffffffffffffffffffffffffffffffffffffffff160217905550600460009054906101000a900473ffffffffffffffffffffffffffffffffffffffff1690508073ffffffffffffffffffffffffffffffffffffffff1663313ce5676000604051602001526040518163ffffffff167c0100000000000000000000000000000000000000000000000000000000028152600401602060405180830381600087803b151561016557600080fd5b6102c65a03f1151561017657600080fd5b5050506040518051905060038190555060008060000181905550600354600a0a620f4240026000600101819055505050610b21806101b56000396000f300606060405236156100b8576000357c0100000000000000000000000000000000000000000000000000000000900463ffffffff1680631f0ba6c9146100cc578063313ce567146100f957806347c6b45e146101225780636217229b1461018357806377ed0ad6146101ac5780637cd50577146101ee578063845ad81314610213578063874fc5f8146102685780638da5cb5b1461028b578063c89f2ce4146102e0578063e637a44b14610310578063fc37987b1461033c575b346000800160008282540192505081905550005b34156100d757600080fd5b6100df610365565b604051808215151515815260200191505060405180910390f35b341561010457600080fd5b61010c610378565b6040518082815260200191505060405180910390f35b341561012d57600080fd5b610181600480803573ffffffffffffffffffffffffffffffffffffffff1690602001909190803590602001909190803573ffffffffffffffffffffffffffffffffffffffff1690602001909190505061037e565b005b341561018e57600080fd5b6101966105fa565b6040518082815260200191505060405180910390f35b34156101b757600080fd5b6101d860048080351515906020019091908035906020019091905050610600565b6040518082815260200191505060405180910390f35b34156101f957600080fd5b61021160048080351515906020019091905050610699565b005b341561021e57600080fd5b610226610712565b604051808273ffffffffffffffffffffffffffffffffffffffff1673ffffffffffffffffffffffffffffffffffffffff16815260200191505060405180910390f35b61028960048080351515906020019091908035906020019091905050610738565b005b341561029657600080fd5b61029e610a49565b604051808273ffffffffffffffffffffffffffffffffffffffff1673ffffffffffffffffffffffffffffffffffffffff16815260200191505060405180910390f35b34156102eb57600080fd5b6102f3610a6f565b604051808381526020018281526020019250505060405180910390f35b341561031b57600080fd5b61033a6004808035906020019091908035906020019091905050610a81565b005b341561034757600080fd5b61034f610aef565b6040518082815260200191505060405180910390f35b600760009054906101000a900460ff1681565b60035481565b6000600260009054906101000a900473ffffffffffffffffffffffffffffffffffffffff1673ffffffffffffffffffffffffffffffffffffffff163373ffffffffffffffffffffffffffffffffffffffff161415156103dc57600080fd5b73eeeeeeeeeeeeeeeeeeeeeeeeeeeeeeeeeeeeeeee73ffffffffffffffffffffffffffffffffffffffff168473ffffffffffffffffffffffffffffffffffffffff16141561048a576000800154831115151561043757600080fd5b8173ffffffffffffffffffffffffffffffffffffffff166108fc849081150290604051600060405180830381858888f19350505050151561047757600080fd5b8260008001600082825403925050819055505b600460009054906101000a900473ffffffffffffffffffffffffffffffffffffffff1673ffffffffffffffffffffffffffffffffffffffff168473ffffffffffffffffffffffffffffffffffffffff1614156105f45760006001015483111515156104f457600080fd5b600460009054906101000a900473ffffffffffffffffffffffffffffffffffffffff1690508073ffffffffffffffffffffffffffffffffffffffff1663a9059cbb83856000604051602001526040518363ffffffff167c0100000000000000000000000000000000000000000000000000000000028152600401808373ffffffffffffffffffffffffffffffffffffffff1673ffffffffffffffffffffffffffffffffffffffff16815260200182815260200192505050602060405180830381600087803b15156105c457600080fd5b6102c65a03f115156105d557600080fd5b5050506040518051905050826000600101600082825403925050819055505b50505050565b60065481565b600082156106545760008060010154111561064b57600554670de0b6b3a7640000600354600a0a600354600a0a85020281151561063957fe5b0481151561064357fe5b049050610693565b60009050610693565b60008060000154111561068e57600354600a0a60065402670de0b6b3a7640000600354600a0a84020281151561068657fe5b049050610693565b600090505b92915050565b600260009054906101000a900473ffffffffffffffffffffffffffffffffffffffff1673ffffffffffffffffffffffffffffffffffffffff163373ffffffffffffffffffffffffffffffffffffffff161415156106f557600080fd5b80600760006101000a81548160ff02191690831515021790555050565b600460009054906101000a900473ffffffffffffffffffffffffffffffffffffffff1681565b60008060011515600760009054906101000a900460ff16151514151561075d57600080fd5b600460009054906101000a900473ffffffffffffffffffffffffffffffffffffffff16915083156108b557348314151561079657600080fd5b6107a1600134610600565b9050600081141580156107b957508060006001015410155b15156107c457600080fd5b8173ffffffffffffffffffffffffffffffffffffffff1663a9059cbb33836000604051602001526040518363ffffffff167c0100000000000000000000000000000000000000000000000000000000028152600401808373ffffffffffffffffffffffffffffffffffffffff1673ffffffffffffffffffffffffffffffffffffffff16815260200182815260200192505050602060405180830381600087803b151561086f57600080fd5b6102c65a03f1151561088057600080fd5b505050604051805190505080600060010160008282540392505081905550346000800160008282540192505081905550610a43565b8173ffffffffffffffffffffffffffffffffffffffff166323b872dd3330866000604051602001526040518463ffffffff167c0100000000000000000000000000000000000000000000000000000000028152600401808473ffffffffffffffffffffffffffffffffffffffff1673ffffffffffffffffffffffffffffffffffffffff1681526020018373ffffffffffffffffffffffffffffffffffffffff1673ffffffffffffffffffffffffffffffffffffffff1681526020018281526020019350505050602060405180830381600087803b151561099457600080fd5b6102c65a03f115156109a557600080fd5b50505060405180519050506109bb600084610600565b9050600081141580156109d2575080600080015410155b15156109dd57600080fd5b3373ffffffffffffffffffffffffffffffffffffffff166108fc829081150290604051600060405180830381858888f193505050501515610a1d57600080fd5b826000600101600082825401925050819055508060008001600082825403925050819055505b50505050565b600260009054906101000a900473ffffffffffffffffffffffffffffffffffffffff1681565b60008060000154908060010154905082565b600260009054906101000a900473ffffffffffffffffffffffffffffffffffffffff1673ffffffffffffffffffffffffffffffffffffffff163373ffffffffffffffffffffffffffffffffffffffff16141515610add57600080fd5b81600581905550806006819055505050565b600554815600a165627a7a7230582048041bc8a4e9fcd636c1e2c17e3eaa2be2d01df85020e97592865bcd0b7760f00029",
  "source": "pragma solidity 0.4.17;\n\nimport {TestToken} from \"./TestToken.sol\";\n\ncontract Reserve {\n    struct Fund {\n        uint256 ethStored;\n        uint256 tokenStored;\n    }\n\n    Fund public funds;\n\n    address public owner;\n    uint256 public decimals;\n    uint256 private constant inWei = 10**18;\n    address public supportToken;\n    uint256 public buyRate = 10;\n    uint256 public sellRate = 10;\n    address\n        private constant ETH_ADDRESS = 0xeeeeeeeeeeeeeeeeeeeeeeeeeeeeeeeeeeeeeeee;\n    bool public trade = true;\n\n    function Reserve(address _supportToken) public {\n        owner = msg.sender;\n        supportToken = _supportToken;\n        TestToken tokenContract = TestToken(supportToken);\n        decimals = tokenContract.decimals();\n        funds.ethStored = 0;\n        funds.tokenStored = 1000000 * (10**decimals);\n    }\n\n    function() public payable {\n        funds.ethStored += msg.value;\n    }\n\n    function withdrawFunds(\n        address _token,\n        uint256 _amount,\n        address _destAddress\n    ) public onlyOwner {\n        if (_token == ETH_ADDRESS) {\n            require(_amount <= funds.ethStored);\n            _destAddress.transfer(_amount);\n            funds.ethStored -= _amount;\n        }\n        if (_token == supportToken) {\n            require(_amount <= funds.tokenStored);\n            TestToken tokenContract = TestToken(supportToken);\n            tokenContract.transfer(_destAddress, _amount);\n            funds.tokenStored -= _amount;\n        }\n    }\n\n    function setExchangeRates(uint256 _buyRate, uint256 _sellRate)\n        public\n        onlyOwner\n    {\n        buyRate = _buyRate;\n        sellRate = _sellRate;\n    }\n\n    function getExchangeRate(bool _isBuy, uint256 _srcAmount)\n        public\n        view\n        returns (uint256)\n    {\n        if (_isBuy) {     \n            if (funds.tokenStored > 0) {\n                return (((_srcAmount * (10**decimals) * (10**decimals)) /\n                    inWei) / buyRate);\n            }\n            return 0;\n        } else {\n            if (funds.ethStored > 0) {\n                return\n                    ((_srcAmount * (10**decimals) * inWei)) /\n                    (sellRate * (10**decimals));\n            }\n            return 0;\n        }\n    }\n\n    function toDecimal(uint256 _value) private view returns (uint256) {\n        return _value * (10**decimals);\n    }\n\n    function exchange(bool _isBuy, uint256 _srcAmount)\n        public\n        payable\n        onlyTradable\n    {\n        TestToken tokenContract = TestToken(supportToken);\n        uint256 transferAmount;\n        if (_isBuy) {\n            \n            require(_srcAmount == msg.value);\n            transferAmount = getExchangeRate(true, msg.value);\n            //check enough token to send back\n            require(transferAmount != 0 && funds.tokenStored >= transferAmount);\n            tokenContract.transfer(msg.sender, transferAmount);\n            funds.tokenStored -= transferAmount;\n            funds.ethStored += msg.value;\n        } else {\n            \n            tokenContract.transferFrom(msg.sender, address(this), _srcAmount);\n            transferAmount = getExchangeRate(false, _srcAmount);\n            //check enough ether to send back\n            require(transferAmount != 0 && funds.ethStored >= transferAmount);\n            msg.sender.transfer(transferAmount);\n            funds.tokenStored += _srcAmount;\n            funds.ethStored -= transferAmount;\n        }\n    }\n\n    function setTradable(bool _flag) public onlyOwner {\n        trade = _flag;\n    }\n\n    modifier onlyOwner {\n        require(msg.sender == owner);\n        _;\n    }\n\n    modifier onlyTradable {\n        require(trade == true);\n        _;\n    }\n}\n",
  "sourcePath": "/mnt/E6241EAC241E7FAB/capstone memories/BDP306x_Full Project_NhanctFX02880/capstone_blc/contract_deloy/contracts/Reserve.sol",
  "compiler": {
    "name": "solc",
    "version": "0.4.17+commit.bdeb9e52.Emscripten.clang"
  },
  "schemaVersion": "3.4.7",
  "updatedAt": "2022-04-24T16:59:07.922Z",
  "networkType": "ethereum",
  "devdoc": {
    "methods": {}
  },
  "userdoc": {
    "methods": {}
  }
}